:100000000C942A000C9447000C9447000C94470071
:100010000C9447000C9447000C9447000C94470044
:100020000C9447000C9447000C9447000C94CE00AD
:100030000C9447000C94F8000C9447000C94470073
:100040000C9447000C9447000C9447000C94470014
:100050000C94470011241FBECFE5D8E0DEBFCDBF12
:1000600010E0A0E6B0E0ECEAF3E002C005900D92EB
:10007000A436B107D9F720E0A4E6B0E001C01D9294
:10008000AF36B207E1F70E94A1010C94D4010C94A1
:10009000000084EA86BF06B607FEFDCF089584E916
:1000A00086BF06B604FCFDCF089583B984E886BFF9
:1000B00006B607FEFDCF08958CE580B980E486BFC3
:1000C00008951F93CF93DF93D82FC62F0E94490026
:1000D0008EE40E9455001D2F107F1C2B812F8C60F9
:1000E0000E945500812F8B7F88600E94550020E17F
:1000F000D29FC0011124C82B8C2F8C600E94550008
:100100008C2F8B7F88600E9455000E944F00DF91EA
:10011000CF911F91089560E083E30E94610060E049
:1001200082E30E94610060E088E20E94610060E07A
:1001300086E00E94610060E08FE00E94610060E064
:1001400081E00E9461008FE39FE10197F1F700C019
:1001500000000895CF93DF93EC011AC0219661E06F
:100160000E94610080916C0091E0980F90936C0068
:100170008F3021F460E080EC0E94610080916C007F
:10018000803231F460E080E80E94610010926C00DF
:1001900088818111E3CFDF91CF9108951F920F9253
:1001A0000FB60F9211248F93B0990FC080916E00FB
:1001B000882319F0813029F015C081E080936E000A
:1001C00011C082E080936E000DC080916E0083307C
:1001D00019F0843029F006C084E080936E0002C0DC
:1001E00010926E008F910F900FBE0F901F90189578
:1001F0001F920F920FB60F9211242F933F934F939C
:100200005F936F937F938F939F93AF93BF93EF937E
:10021000FF932CB180916A0090916B00820F911D29
:1002200090936B0080936A008CB1823419F481E062
:1002300080936D008CB18D3439F480916D008130E4
:1002400019F482E080936D0080916D00823008F493
:1002500060C09AEF980F923058F49CB120916800DA
:1002600030916900290F311D309369002093680097
:1002700098EF980F923058F49CB12091660030911D
:100280006700290F311D30936700209366008E317F
:1002900071F42CB130E0322F22274091640050914C
:1002A0006500240F351F30936500209364008F3163
:1002B00059F49CB12091640030916500290F311DE3
:1002C00030936500209364008F31F1F461E080E0A9
:1002D0000E94610061E0809164000E94610081E6FB
:1002E00090E00E94AA0061E080E00E94610061E06D
:1002F00080916A000E946100109265001092640073
:1003000010926B0010926A0080916D008F5F809355
:100310006D00FF91EF91BF91AF919F918F917F9170
:100320006F915F914F913F912F910F900FBE0F9062
:100330001F90189520E92AB926E820BD90BD89B9FB
:10034000089587E690E00E949A0188B3816088BB97
:1003500085E083BF89B7816089BF78940E945C0083
:100360000E948B0060E080E80E9461008FEF8ABBF2
:100370008BB3806C8BBB80916E008230E1F78091F3
:10038000600091E0980F90936000811104C08BB3DE
:1003900080688BBB05C08BB38F778BBB10926000DE
:0C03A00083E080936E00E7CFF894FFCF5D
:0403AC00012000002C
:00000001FF
